:1000000000800020BD010000F91F0000BD1F00009E
:10001000BD1F0000BD1F0000BD1F0000BD1F000070
:10002000BD1F0000BD1F0000BD1F0000F91F000024
:10003000F91F0000BD1F0000F91F0000AD1F0000E8
:10004000F91F0000F91F0000F91F0000F91F000050
:10005000F91F0000F91F0000F91F0000F91F000040
:10006000F91F0000F91F0000F91F0000F91F000030
:10007000F91F0000F91F0000F91F0000F91F000020
:10008000F91F0000F91F0000F91F0000F91F000010
:10009000F91F0000F91F0000F91F0000F91F000000
:1000A000891E0000991E0000F91F0000F91F0000C2
:1000B000F91F0000F91F0000F91F0000F91F0000E0
:1000C000F91F0000F91F0000F91F0000F91F0000D0
:1000D000F91F0000F91F0000F91F0000F91F0000C0
:1000E000F91F0000F91F0000F91F0000F91F0000B0
:1000F000F91F0000D93B0000F91F00003D4300003C
:10010000F91F0000B9480000F91F0000F91F0000A6
:10011000F91F0000F91F0000F91F0000F91F00007F
:10012000F91F0000F91F0000F91F0000F91F00006F
:10013000F91F0000F91F0000F91F0000F91F00005F
:10014000F91F0000F91F0000F91F0000F91F00004F
:10015000F91F0000F91F0000F91F0000F91F00003F
:10016000F91F0000ED250000F91F0000F91F000035
:10017000F91F0000F91F0000F91F0000F91F00001F
:10018000F91F0000F91F0000F91F0000F91F00000F
:10019000F91F0000F91F0000F91F0000F91F0000FF
:1001A000F91F0000F91F0000F91F0000F91F0000EF
:1001B000F91F0000F91F0000F91F0000574B4CF217
:1001C000205210B51A804DF628121A8000BF00BFC9
:1001D00001F016FF524B4FF010621A60514A9A60BC
:1001E000514ADA60A3F53043203B1A6812F480725A
:1001F00004D14E490A604FF4A8521A604C4B1A7849
:10020000110703D51A7842F008021A70494B4A4C7C
:100210004A482A221A704A4A00239918A14203D256
:10022000195899500433F8E7464B474900228B424E
:1002300002D243F8042BFAE74448454900235A58B0
:100240001A500433B3F5DE7FF9D1424B424A802184
:1002500003F8011B9342FBD1404B3C4A1A60404BD0
:100260008A221A70A3F5805324225A70A0221A7091
:100270009A799207FCD59A79D406FCD4394A9379B5
:1002800003F00C03082B374BF9D103221A714022DB
:100290005A719A799006FCD5324A9179314B4906C8
:1002A000FBD5314A314911600221516020221A7078
:1002B0009A7902F00C020C2AFAD12D4B2D4A1A60C1
:1002C0002D4B4BF67F321A6000225A60072243F80A
:1002D000042C2A4AC3F80C2D62B602F047F8134BDF
:1002E0001B68DA0705D5264801F006FF254B264A8C
:1002F0001A60264B1B785B0609D5224C224A2368DC
:10030000934204D11E4801F0F7FE0023236005F05C
:10031000FBF901F07BFE02F0B3FFFEE70E20054083
:1003200030800440823F04000100002B14D00340C1
:1003300002D0074000E007402C97FF1F38A20000C2
:100340006087FF1F2C97FF1FFC9AFF1F0082FF1F73
:100350000000000000E400E05FE400E008ED00E0E1
:100360000050064000400640448004400000131145
:1003700004800440C010050014E000E000002020CC
:10038000563DC9581CE00340A5C3945A00F00740ED
:10039000FFFFFFFFFFFFFFFFFFFFFFFFFFFFFFFF6D
:1003A000FFFFFFFFFFFFFFFFFFFFFFFFFFFFFFFF5D
:1003B000FFFFFFFFFFFFFFFFFFFFFFFFFFFFFFFF4D
:1003C000FFFFFFFFFFFFFFFFFFFFFFFFFFFFFFFF3D
:1003D000FFFFFFFFFFFFFFFFFFFFFFFFFFFFFFFF2D
:1003E000FFFFFFFFFFFFFFFFFFFFFFFFFFFFFFFF1D
:1003F000FFFFFFFFFFFFFFFFFFFFFFFFFFFFFFFF0D
:10040000FFFFFFFFFFFFFFFFFFFFFFFFDEF9FFFF23
:1004100010B5054C237833B9044B13B10448AFF33E
:1004200000800123237010BD2C97FF1F00000000E7
:1004300030A2000008B5064B1BB106480649AFF3D1
:1004400000800648036813B1054B03B1984708BD07
:100450000000000030A200003097FF1F2C97FF1F04
:100460000000000070B584B00D20012101F086FE6F
:100470004E494F4C4F4A504E42F20F700B7813F0DA
:10048000FF0F00F08A80237813F0030F00F08580BF
:1004900015683368EB1A182B7FD9484D284600F0B1
:1004A0002BFA0246464C2046464902F095FE464B42
:1004B000009320464549464A464B02F08DFE23688C
:1004C0005B682046444910229847204602F06CFEA3
:1004D00023685B68204641490722984720464049E7
:1004E00002F0C4FE204602F05FFE284600F006FA45
:1004F0003C4E01213170284600F078FA054620462E
:100500003949327802F068FE5DB12C4B93F83820FF
:1005100003EB8203DB6835490B602046344902F067
:100520005BFE264800F0E6F938B1244800F0E4F913
:10053000024623482F4902F04FFE214C23685B6896
:1005400020462D490D2298472C4B19882C4DA5FB90
:1005500001212046890902F089FE23685B68204654
:100560002849062298472046274902F035FE2046B2
:10057000264902F031FE2046254902F02DFE4FF4B7
:10058000FA6001F0DDFE0B4B1B680393039BA5FB98
:100590000325AD091F4B1D6006E013680293029B03
:1005A00083427FF66BAF78E704B070BDC898FF1F39
:1005B000D898FF1FE497FF1FF49AFF1F4897FF1F6B
:1005C000DC98FF1FE49800003C990000109900009F
:1005D0002499000030990000A8990000BC990000FF
:1005E000006CDC02A897FF1FC4990000B897FF1F9A
:1005F000E4990000109A00003C9A00004088FF1F18
:10060000D34D62104C9A0000549A00008C9A00005E
:10061000A89A0000B497FF1F2DE9F04188B000238D
:100620008DF80F307B4B1B680493049A7A4BA3FB25
:1006300002129209794B1A6002F032FC00282EDD7A
:1006400002F0E2FBC0B2764A1070A0F15103252BF4
:1006500025D8DFE803F0131B2424241724242424A2
:10066000242424242424242424242424242424244A
:10067000242424242424131B242424170022694B1B
:100680001A700CE00122674B1A7008E0664867494F
:1006900002F0A2FD664B1869597B00F0CDFC0D20DD
:1006A000012101F039FD634D00265E4CDFF86481C5
:1006B0005D4F237843B1D8F800300593059A38464A
:1006C0005D49334602F088FD5C48297900F0C6F99F
:1006D00088B15A4B93F8382003EB8203DB68584902
:1006E0000B605148574902F077FD574B1888400876
:1006F00001F026FE4AE023782BB13B685B68384660
:100700005249012298474D480DF10F0100F03AF986
:1007100088B14A4B93F8382003EB8203DB684849E1
:100720000B6041484A4902F057FD474B1888400882
:1007300001F006FE2AE023782BB13B685B6838465F
:1007400042490122984701359DF80F20EB789342EA
:1007500009D035483F4902F03FFD3B4B188840081F
:1007600001F0EEFD12E023786BB13B685B68384620
:1007700036490122984723782BB1384636499DF8EF
:100780000F2002F029FD0136082E92D10D20002104
:1007900001F0C2FC1F4B1B68069306991E4BA3FB7E
:1007A000015189092D4B19601E4B1B781BB91B4B3E
:1007B0001B6899422BD9174B1B68079307981F4C4E
:1007C000A36D154AA2FB005225480068091AB3FB25
:1007D000F1F1009114482349920902F0FDFC626D89
:1007E00062B1114C2046204902F0F6FC104B1B6907
:1007F00020461E49D3F86C2202F0EEFC0A4802F0B3
:10080000D3FC084B1B7813B1074802F0CDFC08B0AD
:10081000BDE8F081E497FF1FD34D6210A497FF1F3E
:10082000B097FF1FA997FF1FDC98FF1FAC9A00002D
:10083000D097FF1F4797FF1FC49A00004897FF1FDC
:10084000B897FF1FD09A00004088FF1F049B00004C
:10085000089B0000389B0000589B0000AC97FF1FCE
:10086000B497FF1F6C9B0000849B0000909B0000CE
:1008700010B5054C2046702100F00CF820460349C5
:10088000034A04F031FF10BD4897FF1FF108000034
:100890003C88FF1FF0B406460F46144D2A686B686B
:1008A000C0F80320C0F8073000F10C0408350FCD64
:1008B0000FC40FCD0FC495E8070084E807006F2F21
:1008C00004D8702333700123B37009E0772F04D963
:1008D000772333700123B37002E037700023B370C5
:1008E000002373653046F0BC704700BFA09B00003A
:1008F000704700BF807870470078704770B586B049
:100900000C4C2669657B284600F058F900230093BB
:1009100001900293084A039201220492304629462C
:100920001A4600F01DFB236942F21072C3F86822D8
:1009300006B070BDD097FF1FA0860100436DB3F1D4
:10094000FF3F1CBF013343650A2917D8DFE801F0D8
:10095000060A0E121919191919191900C36B013356
:10096000C3637047036C013303647047436C013306
:1009700043647047836C013383647047036D0133B4
:100980000365704770B582B004460D46144B186974
:10099000597B2278012300930026019600F03EFF48
:1009A000C3B2012B10D00F480F491A4602F014FCB5
:1009B0000B4B1B6993F85112C9B284F838102046CA
:1009C000FFF7BCFFFF2008E0A36D0133A365044BD4
:1009D000186900F041FF2870002002B070BD00BF10
:1009E000D097FF1FDC98FF1FD49B000070B582B02A
:1009F00004460E46184D2846217800F023FC284670
:100A0000314600F06DF8C5B284F83850012D05D09C
:100A100020460021FFF792FF01201AE00E480169ED
:100A2000427B00230093012300F0E4FE84F83800A9
:100A300058B1094B1B6993F85112C9B284F83810A8
:100A40002046FFF77BFF284603E0A36D0133A36533
:100A5000667002B070BD00BFD097FF1F70B582B046
:100A600004460D46184E3046217800F0EBFB304628
:100A7000294600F035F8C6B284F838606570012E5A
:100A800005D020460021FFF759FF01201AE00E484B
:100A90000169427B00230093012300F0ABFE84F840
:100AA000380058B1084B1B6993F85112C9B284F849
:100AB00038102046FFF742FF304603E0A36D0133B4
:100AC000A365657002B070BDD097FF1F0369D3F8AE
:100AD0003801D3F83431C01A704700BF704700BFE7
:100AE0000369D3F84422B2F5817F09D8D3F84422B0
:100AF000501CC3F84402134483F83C110120704792
:100B0000012303710020704730B40369D3F84442D5
:100B1000B4F5817F1ED8D3F84442C4F58174013402
:100B2000D3F844522B4403F59E73944202D201221F
:100B30000271224632B18D1811F8014B03F8014BB6
:100B4000A942F9D10369D3F844121144C3F84412FD
:100B5000104602E001230371002030BC704700BF43
:100B600038B50446084B0360036993F84822022A0B
:100B700008D1D3F864522DB1284602F0FBFA28467A
:100B800002F08AFB204638BDA09C000010B4002271
:100B900002714FF47A7484600273064A02604173F2
:100BA0004FF41C74044A04FB012101615DF8044BFD
:100BB000704700BFA09C00004488FF1F012814BF9D
:100BC00001200220704700BF70B504460D46C3687F
:100BD0001B7813F0200F40F0B680836880211970D5
:100BE000C3681221197090F84932012B0BD022B939
:100BF000002380F84832012070BD531EDBB2012B68
:100C000000F2A38000E0012225B94FF08071504B23
:100C1000196005E0012D03D14FF000714C4B1960B4
:100C2000022A40F08C80D4F864624EB9082002F0A9
:100C30002FFB0646002102F03FFAC4F864627EB141
:100C40003379102B0CD1304602F094FA304602F082
:100C500023FB0023C4F86432012084F8480270BDED
:100C6000002D30D133689A8B92B2998B42F00802F2
:100C70009A83D4F86432197910313648364A42F8EA
:100C800021001A7953119B0003F1604303F561437E
:100C900002F01F02012101FA02F21A60D4F8643254
:100CA0001B689A8B92B2998B42F002029A83D4F815
:100CB00064321B7903F1804303F5043300221A7078
:100CC00096221A7033E0012D31D1D4F864321B68BA
:100CD0009A8B92B2998B42F008029A83D4F86432CC
:100CE000197910311D481C4A42F821001A79531114
:100CF0009B0003F1604303F5614302F01F020121F1
:100D000001FA02F21A60D4F864321B689A8B92B22C
:100D1000998B42F002029A83D4F864321B7903F172
:100D2000804303F5043300221A7097221A700023BF
:100D300084F85A32022384F84832012070BD012021
:100D400084F8480270BD002070BD012070BD00BF56
:100D500000E100E0891E00000082FF1F991E0000D4
:100D600070B4254BA3FB0145AD092D02A3FB024343
:100D70009B09B5FBF3F5B5F5A05F38DB1F4A0123EE
:100D800002E00133372B05D052F8044FB5EB042FA6
:100D9000F7DA93B15A1E194C54F82260A5EB0626D7
:100DA000002EB8BF764254F82340A5EB0425002D51
:100DB000B8BF6D42AE42D8BF13464268104CE45CE7
:100DC00014700E4A52F82330B1FBF3F3C0F84C32E2
:100DD0000C4B994203D9836904221A7009E0836994
:100DE000094AA2FB0101C1F30751197001E0002378
:100DF000E3E770BC704700BFD34D6210B89C0000A1
:100E0000949D0000FF6BDC02819F5E162DE9F84F78
:100E100006460D4617461C469DF82830002B00F06C
:100E20008480C268127812F0200F75D17DE0012F06
:100E300005D9012D73D1BA1E012A09D902E04FF05C
:100E4000010901E04FF00009B9F1000F02D169E09A
:100E50004FF00109002B32D096F84B32002B14BF13
:100E60004FF0020B4FF0000B96F84A32032B26D8B6
:100E7000DFE803F0020B141D1120594601F07EF942
:100E80001020594601F07AF919E01220594601F074
:100E900075F91320594601F071F910E01E205946EA
:100EA00001F06CF91D20594601F068F907E01F2098
:100EB000594601F063F91A20594601F05FF98DB9DE
:100EC00017B1012F07D00DE0214BC3F80080043B80
:100ED000C3F8008019E01F4BC3F80080043BC3F83F
:100EE000008012E0012D10D1022F08D0032F0CD169
:100EF000194BC3F800A00433C3F800A005E0174B5A
:100F0000C3F80080043BC3F8008086F84A7286F874
:100F10004B424846BDE8F88F0020BDE8F88F00201E
:100F2000BDE8F88F4846BDE8F88F002C40F2032258
:100F30000CBF4FF41978904640F2036240F26461AE
:100F4000002C0CBF8A469246002D7FF472AF6EE7EC
:100F500004A004400CA0044000D004402CB0044085
:100F600070B582B004469DF818000D4629B9304985
:100F70000E6846F040060E6006E0012904D12C49B7
:100F80000E6846F080060E6084F84922002184F83D
:100F900051123AB9636920221A7022681170E2690D
:100FA000117011E0626900283AD130E05B00DBB2D9
:100FB0001370E2694300DBB205E04000C0B210707C
:100FC000E2695B00DBB213700023009320462946E0
:100FD0009DF81C209DF82030FFF718FF204615498A
:100FE000099AFFF7BDFE204629469DF82820FFF705
:100FF000EBFD94F849321BB9A36880221A7002E015
:10100000A368C0221A700023C4F86C320EE02021BD
:10101000117022685B00DBB21370E2690023D2E733
:101020002821117022689842C0D8C6E702B070BD6E
:1010300034800440006CDC022DE9F04F83B0074699
:101040008B4690F84A32032B61D8DFE803F0424523
:1010500002051E261D2441E01F261A243EE02046DC
:10106000514601F059F82B46013B7FF4FDAF204675
:10107000494601F051F82B46013B7FF4FDAF304665
:1010800001F06EF820B908F1FF3818F0FF08E6D13A
:1010900097F84A2297F84B3200210091384659467A
:1010A000FFF7B4FEFB681B7813F07F0F0DD0BB6811
:1010B00000221A7050231A46013A7FF4FDAFBA6835
:1010C00080211170013B7FF4FDAF002387F851327E
:1010D0001DE01126102401E01226132497F84B324C
:1010E000002B304614BF0221002101F047F82046B2
:1010F000012101F011F82046012101F03FF84FF0E5
:101100000B084FF0000A50254FF00109B7E703B074
:10111000BDE8F08F2DE9F843044688461646994607
:1011200001F0ECF80EB9D4F8686201F0E7F8074670
:10113000A3681A7812F0200F0ED0B4221A7037E08C
:10114000E5682D7815F0200F06D1002384F8493288
:10115000A368B0221A7006E0002EF1D001F0CEF89C
:10116000C01B8642ECD8A3681B7813F0200F13D164
:1011700020464146FFF760FFD4F86C320133C4F8D3
:101180006C32E3681B7813F0200F05D1002384F83C
:101190004932A368B0221A70A3681B7803F02003B9
:1011A00003F0FF0023B9042384F85132BDE8F8832B
:1011B00094F84832013BDBB2012B38D800F030FF05
:1011C000B8F1000F03D0B8F1010F03D005E01B4BBD
:1011D0001B7804E01A4B1B7801E0184B1B78834204
:1011E00028DB0F2804DC012089F80000BDE8F88323
:1011F000B8F1000F03D0B8F1010F08D00FE0A0F153
:101200001002D2B20D4B1A700120BDE8F883A0F194
:101210001002D2B20A4B1A700120BDE8F883A0F187
:101220001002D2B2054B1A700120BDE8F8830120EC
:10123000BDE8F8830120BDE8F88300BF18E400E0B2
:1012400019E400E00369490083F83C1103690122B5
:10125000C3F8442200230371026982F851327047B7
:101260002DE9F04383B0054614461F4600238DF850
:101270000730D0F84432002B00F0C7800FB9D0F807
:101280006872EB6812221A7028463A460DF107037D
:10129000FFF740FF002800F0B88095F848321BB1F6
:1012A0009DF80720002A53D001F028F88146012339
:1012B00085F8513285F8504200264FF002082AE0A6
:1012C0002B69AA1992F83C211A70EC68217811F068
:1012D000020FFBD084F80080EB681978C9B211F0D6
:1012E000100F08D0072285F8512210221A70AB681F
:1012F00080221A7089E011F0010F0BD01EB905236E
:1013000085F8513202E0062385F85132AB6880221D
:101310001A707AE00136D5F844329E4207D2002F87
:10132000CED000F0EBFFC9EB00008742C8D8D5F85B
:101330004432B3428CBF0423002385F8513295F820
:101340005032012BAB680CBF8022B0221A705CE0D7
:101350005A1ED2B2012A58D8012285F8512285F8A6
:1013600050420022C5F84022022B14D1D5F8443255
:10137000042B18D80FE013689B6833B91368002159
:101380000120187259729972D972136800221A7664
:101390005A769A76DA76AB68F0221A702B6995F84D
:1013A0003C211A7031E0012385F85A32D5F86422C5
:1013B00005F59F70D5F84442033C11680B68002383
:1013C00008601168012008714B711168CB711168B8
:1013D00008724B728B72CB7211686042C8601068E1
:1013E000C18BA1B2C1831268D08AD182D5F86422A0
:1013F00029691068046901611068037543751068F4
:101400008371B1F1804FB9D3B5E703B0BDE8F08384
:101410002DE9F04383B0044616469DF828700B9DD5
:1014200000208DF80700002B00F04D81B3F5827F7E
:1014300003D3082384F8513245E1C4F85432002321
:10144000C4F83431C4F838310DB9D4F86852E368BF
:1014500012221A7020462A460DF10703FFF75AFEA2
:10146000002800F0308194F8483223B19DF807201D
:10147000002A00F0958000F041FF8046022384F8A6
:10148000513284F850722369720042F00102D2B2E4
:101490001A70E268137813F0020FFBD00223137066
:1014A000E2681378DBB213F0100F08D0072384F83A
:1014B000513210231370A36880221A7003E113F0D5
:1014C000010F06D0052384F85132A36880221A70D8
:1014D000F9E0032384F85132D4F85432012BA36885
:1014E0000CBFA822A0221A7023691B7802260027AD
:1014F00045E00B7813F0020FFBD00E70002D00F0CA
:10150000AA8000F0FBFEC8EB000085428CBF0023E0
:101510000123D4F838110231D4F85422914205D075
:101520003BB194F8592222B900E03B46A26882F808
:101530000090D4F838110131D4F85422914280F04F
:101540009F80002B00F0918094F85922002A40F0EF
:10155000AA808AE0042284F8512201E084F85172C2
:1015600094F85022012A06D11022013A7FF4FDAFEF
:10157000A2688021117023B1012384F859324FF001
:10158000A809D4F83821D4F854329A4280F09B80CC
:1015900094F85132DBB2032B40F09580E168A8E764
:1015A0005A1ED2B2012A00F28E80022284F8512201
:1015B00084F85072934244D1D4F85432042B40D969
:1015C000012384F85A32D4F8643221691868026819
:1015D000002201601868027142711868C271B1F18D
:1015E000804F02D31A68926832B91A68002101202C
:1015F000107251729172D1721A680023137353736F
:101600009373D373D4F8642204F13005D4F85402F0
:10161000013811680F690D61116801250D754B7551
:1016200011688B7111680D724B728B72CB721368DB
:10163000414299611368D98B81B2D9831368DA8AE0
:10164000D982A368F0221A702369720042F0010265
:10165000D2B21A7037E0D4F838210232D4F85432BA
:101660009A423FF462AF3B4663E722691178D4F8AF
:101670003821501CC4F83801224482F830107AE72F
:1016800084F85972A268B021117022691178D4F8D7
:101690003821501CC4F83801224482F83010002B45
:1016A0003FF45CAF56E784F85972A268B02111701C
:1016B00022691178D4F83821501CC4F8380122442A
:1016C00082F8301046E703B0BDE8F083036993F871
:1016D0005132043B042B0CD8DFE803F00910050756
:1016E0000300012070470320704704207047042046
:1016F00070470079003018BF012070470220704702
:1017000090F8513213F0FF0F1BD090F85132DBB23A
:10171000052B18D090F85132DBB2062B15D090F87B
:101720005132DBB2072B12D090F85132DBB2042BCE
:101730000FD090F85102C0B2082814BF0020012039
:101740007047012070470120704701207047012039
:1017500070470120704700BF70B50446154600F081
:10176000CDFD0DB9D4F8685200F0C8FD06462046FC
:10177000FFF7C6FF00283AD1002DF8D000F0BEFDDB
:10178000801B8542F3D800F0B9FD801B854210D83C
:1017900094F84832022B0CD194F85A3213F0FF0F10
:1017A00007D02046FFF7ACFF0028FAD0042384F8C6
:1017B000513294F85132DBB2012B09D094F85132F6
:1017C000DBB2022B04D094F85132DBB2032B02D1EE
:1017D000042384F851324023013B7FF4FDAF94F899
:1017E000513213F0FF0F14BF0020012070BD002DF7
:1017F000DFD0C8E7F8B507460E461546069C0846F2
:1018000011461A462346FFF72BFD3046294622464D
:10181000FFF7A2FF3846FFF759FFF8BD70B582B059
:1018200004460D461E468BB19DF81830009307996B
:10183000019129463346FFF7EBFD20462946079ADA
:10184000FFF78AFF20B1D4F8380102E0002000E061
:10185000002002B070BD00BFD0F83421D0F838317C
:101860009A4208D2D0F834315A1CC0F834211844B6
:1018700090F8300070474FF0FF30704708B50069AE
:10188000FFF7EAFF08BD00BFD0F83421D0F83831A7
:101890009A423DBFD0F83431C01890F830004FF074
:1018A000FF30704708B50069FFF7EEFF08BD00BFC5
:1018B00038B50446C2681578EDB281680B78DBB2A2
:1018C00013F0200F00F0C38113F0100F00F005811A
:1018D00090F85A32DBB2022B04D090F85A32DBB2C5
:1018E000032B4CD1D4F864120B689B8B03F080035C
:1018F0009BB2002B00F0858294F85A32DBB2022BA7
:1019000040F07F8273E2137813F0800FFBD00A79E6
:10191000B54B1A70002384F85A32D4F84432013B94
:10192000C4F840322369D4F84022224492F83C2182
:101930001A7020E0AD4B1A680B79012199401142D1
:1019400019D0AB4A1370D4F864321A79A94B1A70C3
:10195000002384F85A3215F0100F0CD0072384F8B6
:101960005132E36812221A70A36880221A70002391
:10197000C4F8403238BDE36802221A7038BD90F8CE
:101980005132DBB2012B56D115F0100F0DD00023D0
:1019900080F85A32072180F85112122111708268A2
:1019A00080211170C0F8403238BD15F0010F0FD002
:1019B000002380F85A32D0F840321BB9052380F852
:1019C000513202E0062380F8513280230B702EE062
:1019D000D0F840320133C0F84032D0F8442293426C
:1019E0000AD3002380F8513290F85032012B0CBFFB
:1019F0008023B0230B701AE090F85A32DBB2012B2F
:101A00000ED1022380F85A32F1230B70D0F86432E1
:101A10001A79794B1A70036990F83D211A7006E023
:101A20000369D0F84022024492F83C211A70E3681E
:101A300002221A7038BD90F85132DBB2022B36D137
:101A400015F0100F08D0072380F8513212231370BD
:101A5000836880221A7038BD15F0010F05D0052368
:101A600080F8513280230B701DE090F85A32DBB2BF
:101A7000012B0CD1022380F85A32E1230B70D0F8ED
:101A800064321A795C4B1A7003691B780BE00323EC
:101A900080F85132D0F85432012B0CBFE823E023F8
:101AA0000B7003691B78E36802221A7038BD90F846
:101AB0005132DBB2042B0AD190F85032012B0CBF0B
:101AC0008023B0230B70C36802221A7038BD8023B4
:101AD0000B70C36802221A7038BD90F85A32DBB21C
:101AE000022B04D090F85A32DBB2032B56D1D4F833
:101AF00064321A68928B02F0800292B2002A00F0DF
:101B0000918194F85A22D2B2022A40F08B817FE16F
:101B10001A79354B1A70002384F85A3294F85132EE
:101B2000DBB2042B1CBF002384F85132A368B0221F
:101B30001A70D4F85432013BC4F83831D4F8383133
:101B40005A1CC4F8382122691278234483F83020C3
:101B500094F85032012B1DD11023013B7FF4FDAFCF
:101B6000A36880221A7015E0204A12681B790121AF
:101B7000994011420ED01F4A1370D4F864321A797A
:101B80001B4B1A70002384F85A3284F85132A36830
:101B900080221A70E36802221A7038BDD0F838210A
:101BA0000232D0F854329A4200F0438190F8513218
:101BB000DBB2042B04D190F85932002B00F03981AC
:101BC000D4F838210132D4F854329A4280F03F815F
:101BD00094F85132DBB2042B40F02E8194F8593244
:101BE000002B40F0348127E11C8000402C80004015
:101BF0001F8000401E8000401B800040002384F8AE
:101C00005132A368B0221A70D4F838315A1CC4F883
:101C1000382122691278234483F8302094F8503216
:101C2000012B06D11023013B7FF4FDAFA368802276
:101C30001A7094F85132DBB2042B04D194F8593263
:101C4000002B00F00E81E36802221A7038BD15F0F7
:101C5000100F08D01023137015F0400F06D1C36881
:101C600002221A7038BD15F0400F60D094F851323E
:101C7000DBB20A2B04D1D4F85C32002B40F0F580A3
:101C800015F0040F1ED0092384F851320023C4F844
:101C90004432A368D0221A7023691B785B0884F849
:101CA0005232D4F8603203B19847D4F844320BB9B9
:101CB00084F83C31236994F83C211A700123C4F85C
:101CC000403230E0002384F8583294F84A32012B35
:101CD00005D112206949032200F090FA15E02BB9D2
:101CE00011206649032200F089FA0EE0022B05D18B
:101CF0001E206349032200F081FA06E0032B04D181
:101D00001F205F49032200F079FA0A2384F8513238
:101D10000023C4F83831A368C0221A7023691B78E5
:101D20005B0884F85232E36802221A7038BD13F05F
:101D3000100F20D015F0010F15D1D0F84022D0F8A7
:101D400044329A4208D2D0F840325A1CC0F840229D
:101D5000034493F83C2100E0002223691A70A36831
:101D6000D0221A703FE0C0230B7003691B78002358
:101D700080F8513237E090F85132DBB20A2B32D181
:101D8000002380F8583290F84A32012B05D11220F6
:101D90003A49032200F032FA15E02BB911203749F5
:101DA000032200F02BFA0EE0022B05D11E2034494D
:101DB000032200F023FA06E0032B04D11F20304950
:101DC000032200F01BFA23691B78DAB2D4F8383109
:101DD000B3F5817F07D8D4F83831591CC4F83811CD
:101DE000234483F83020E36802221A7038BD0A7950
:101DF000244B1A70A368F0221A70032384F85A3215
:101E0000B9E594F85A32DBB2032B7FF493AD7AE54F
:101E10001A791C4B1A70A368E8221A70032384F8FD
:101E20005A32B7E694F85A22D2B2032A7FF49CAE13
:101E30006EE6E8230B70C3E6D4F838315A1CC4F8B8
:101E4000382122691278234483F83020F1E60023F8
:101E500084F8593294F85132DBB2042B7FF4CEAEC1
:101E6000CFE6012384F85932EDE60023C4F834317B
:101E7000D4F83801D4F85C32984701E74D1F0000D0
:101E80005D1F00001F80004008B502480021FFF7D9
:101E90000FFD08BD4488FF1F08B502480121FFF768
:101EA00007FD08BDB48AFF1F10B50446C3681B7840
:101EB00013F0200F24D1002380F8513290F84A32D9
:101EC000012B03D1122000F0CDF80FE01BB9112037
:101ED00000F0C8F80AE0022B03D11E2000F0C2F87F
:101EE00004E0032B02D11F2000F0BCF8D4F85C32D0
:101EF00053B30022C4F83421D4F83801984710BDF8
:101F000090F858320133DBB280F85832012B03D8F5
:101F100090F84932012B17D094F84A32012B03D1A3
:101F2000122000F09FF810BD1BB9112000F09AF8A4
:101F300010BD022B03D11E2000F094F810BD032B1E
:101F400002D11F2000F08EF810BD00BF08B5024876
:101F50000021FFF7A9FF08BD4488FF1F08B502480C
:101F60000121FFF7A1FF08BDB48AFF1F70B50B4E1A
:101F700030460021FEF70AFE094D0A4C304629463C
:101F8000224603F0B1FB084E30460121FEF7FEFD6C
:101F900030462946224603F0A7FB70BDD097FF1FAD
:101FA000610B00003C88FF1FBC97FF1F024B1A68A3
:101FB00001321A60704700BFE497FF1F08B50D4C4F
:101FC000236813F4802F01D000F010FB236813F472
:101FD000806F01D001F000FE236813F4006F01D080
:101FE00002F0ACF9236813F4805FE9D002F064FCDE
:101FF000E6E700BF3480044008B5FFF7DFFF00BF0D
:102000001022014B1A80704700200540704700BF26
:10201000024A13681844106018467047248DFF1F49
:10202000EFF31383ABB9EFF31083ABB9EFF3058391
:1020300023B10F2B05D9094A985C03E04FF4807057
:1020400000E00020EFF311833BB1834238BF184614
:1020500070474FF0FF30704700207047F0E300E01A
:10206000704700BF1D4B03EBC000436803F14042C3
:10207000A2F592227C2A18D903F14042A2F59422BB
:102080007C2A14D903F14042A2F596227C2A10D969
:1020900003F14042A2F598227C2A0CD903F1404278
:1020A000A2F59A227C2A08D970470D4906E00D490D
:1020B00004E00D4902E00D4900E00D4972B61A68CE
:1020C00022F0877222F4803242F080721A60C3F3E9
:1020D0008403084A41F8232062B67047CC9D000073
:1020E000288DFF1F608DFF1FB08DFF1FE08DFF1F2C
:1020F000008EFF1F61200000044B00221A6004497B
:102100000A60044A106010221A60704714D003401D
:1021100004D0034000D0034021281ED80F4B53F8B1
:10212000303093F8802212F0FF0F08D019B101224D
:1021300083F880207047012283F800217047074B05
:1021400003EBC000436821B11A6842F003021A6031
:1021500070471A6822F002021A607047CC9D000096
:10216000212806D8044B53F8303093F80002C0B24F
:1021700070470020704700BFCC9D000021283AD84E
:102180001D4B03EBC0035B68012919D0042925D03E
:10219000194A52F83020002082F8800219B94FF411
:1021A00080721A607047022903D140F203121A604C
:1021B000704703290CBF4FF4817200221A607047E8
:1021C0000D4A52F83020012182F880124FF4A27299
:1021D0001A601A6822F020021A607047064A52F804
:1021E0003020012182F880124FF4A2721A601A681E
:1021F00042F020021A607047CC9D000070B50D4679
:10220000212861D8042A5FD8DFE802F00709050B0E
:1022100003000B2306E00A2304E0082302E00C235A
:1022200000E009231E04294B03EBC0035C6823680C
:1022300013F4E06F02D10021FFF7A0FF244B254AE1
:10224000C3F89C21244AC3F8A021244AC3F8A4213E
:10225000234AC3F8A821234AC3F8AC2104F1404320
:10226000A3F592237C2B18D904F14042A2F59422C5
:102270007C2A14D904F14043A3F596237C2B10D972
:1022800004F14043A3F598237C2B0CD904F140437F
:10229000A3F59A237C2B08D970BD134906E0134996
:1022A00004E0134902E0134900E0134972B62368C1
:1022B00023F470232360C4F3840241F8225043F0D6
:1022C00080731E43266062B670BD00BFCC9D0000C7
:1022D0000082FF1F1188FF1FE587FF1FB987FF1FBF
:1022E0008D87FF1F6187FF1F288DFF1F608DFF1FD8
:1022F000B08DFF1FE08DFF1F008EFF1F72B60C4BCD
:102300001B680C4A12680C49096862B611F0806FAC
:1023100002D0322B88BF0132C3F53B437F330749DC
:10232000A1FB03035B094FF47A7000FB0230704796
:1023300018E000E0E497FF1F04ED00E0ABAAAAAAB2
:1023400038B50546FFF7DAFF044625B938BD013D2B
:102350000AD004F57A74FFF7D1FF001BB0F57A7F3D
:10236000F5D200F0CDFFF6E738BD00BF10B5264B23
:102370004FF400021A604FF080721A604FF0007242
:102380001A604FF080621A604FF000621A600020FD
:102390001E4B18604BF6FF710433196028231C4A4A
:1023A0001360083213600832136008321360083279
:1023B0001360083213600832136008321360092278
:1023C000144C226004F580540434206004342160ED
:1023D0000434236008342360143C226004F5FE2496
:1023E000043420600C4801600C490B6008310B601C
:1023F0000B4B1A6001F040F84FF4C870FFF7A0FFD4
:1024000000F074FC10BD00BF08E100E00480034050
:102410000C8003400080034008800B400C800B4080
:1024200000800B4030B40E4B1B7843F002020D4C81
:1024300004EBC20460600C48007800280CBF8824BC
:10244000C82444EA0141074D45F8321080F00100EC
:10245000054A107083F00103014A137030BC7047C5
:102460005098FF1F0080FF1FC998FF1F10B4431E24
:10247000032B11D872B60A4A52F8230050B14268B1
:10248000074941F82320074A32F813400188611AAE
:1024900022F8131062B600E000205DF8044B70478C
:1024A0004098FF1FE49AFF1F013803280DD872B629
:1024B000074B53F820302BB1002001305B68002B14
:1024C000FBD100E0002062B670470020704700BFDB
:1024D0009498FF1F38B572B601231B491B4C5A183C
:1024E00012F8012C12F0080F24D09A0054F8325040
:1024F0006DB9164B03EBC20108304860144943F82C
:102500003210144B1A78013A1A7062B638BD42F094
:10251000010254F832506DB90C4B03EBC201083084
:1025200048600D4943F832100A4B1A78013A1A7084
:1025300062B638BD0133052BD1D162B60022054BFE
:102540001A7000F037FC38BD089F00000080FF1FA4
:1025500088004000BE98FF1FC800400010B4431E12
:10256000032B37D8400140F010001C4A104472B6CB
:102570001B4AD25C032A09D8DFE802F019021B05C6
:102580000830022216E00830042213E0154A52F8FF
:1025900023201AB9134A42F8231003E0124A52F8D2
:1025A00023205160104A42F8231062B612E0032241
:1025B00000E005220A4CE25401F10803436000F0F8
:1025C0000803002B0CBF8823C8230A8843EA024370
:1025D000036062B65DF8044B704700BF0080FF1FC8
:1025E000FC97FF1F9498FF1FA498FF1F2DE9F84F39
:1025F000A34CDFF8E092DFF8E0A2DFF8E0B2257844
:10260000EDB215F0040F1DD09E4B1B7813F0FF0F99
:1026100016D09D4B1B7803F0FF022BB1531EDBB28B
:10262000994A137003B900BE984B1B7803F0FF0260
:1026300033B1531EDBB2954A13700BB900F018FD8D
:102640000423237015F0080F00F0E48299F800309D
:10265000DBB21D0940F021828D4D9E0805EBC603BB
:102660005A6855F83630C3F38303013B0C2B00F254
:102670001082DFE813F0CB01CB010E020E020E0236
:102680000E020E020E02E8010E020E020E020D00F4
:10269000804913680B6052684A607F4A45F83620CB
:1026A00000227E490A607A490A618A6101217C4AD6
:1026B00011709BB240F28162934218D8B3F5D06F8B
:1026C0002ED2B3F5817F00F01E8106D8802B00F05A
:1026D000C980822B00F0CC8066E140F20232934246
:1026E00000F02681B3F5A06F00F062815CE142F258
:1026F0002102934200F0868107D8B3F5086F00F0FD
:10270000AB80B3F5106F11D04EE142F2212293421B
:1027100000F0418142F22132934200F0498143E1CD
:10272000604B5D68002D40F0188130E1594B9A787C
:10273000544B1A70564D05F180062B6A13F0800F2A
:1027400003D0686A083800F035FB0835B542F4D18B
:10275000DFF88C8100263746534AB05828B14568C7
:1027600000F028FB0DB12846F9E700234E497350CD
:102770004E4AB3504E4BF05828B1456800F01AFB52
:102780000DB12846F9E7002349497350494AB3502F
:1027900028F8023F484BFB5C023B032B0AD8DFE8DA
:1027A00003F0020602060022434BDA5502E0012242
:1027B000414BDA5501370436102ECDD100223F4B64
:1027C0001A7001253E4EDFF81C81314F05EB0803DE
:1027D00013F8013C06F8043B13F0080F2DD000F06D
:1027E000C9FA48B1A90007EB451200F1080353608C
:1027F000344A47F8312007E0AB00002247F8332085
:102800002E4B1A7801321A7000F0B4FA58B1AB00AE
:1028100043F0010307EBC30100F108024A601E4ABE
:1028200047F8332009E0AB0043F00103002247F8EA
:102830003320224B1A7801321A70AA0042F00201AA
:10284000002347F8313042F0030247F832300135B7
:102850001D4B9E42BAD11EE20A4B1B781B4D2B70BA
:102860000127AAE0194D00232B706B700227A4E00A
:10287000084B9B88042B37D90F22154B1A70C1E0E7
:1028800080200740C898FF1F5198FF1FCA98FF1F5C
:102890000080FF1FB498FF1FC8004000E897FF1F8B
:1028A000C998FF1F0C9F00004098FF1FEC97FF1F67
:1028B0009498FF1FA498FF1FFC97FF1FBE98FF1F4F
:1028C000C420074088004000D4200740C098FF1F64
:1028D000C0200740902007409420074098200740E0
:1028E000E29AFF1F089F0000A04A0021117051705A
:1028F0009F4A12F8233013F0020F5CD09B4D012346
:102900002B70022759E09B4B9B8803F07F03042B1D
:1029100002DC984A52881AB10F22954B1A7071E066
:10292000934A12F8231021F0020102F82310B2E1B9
:10293000904B9B8803F07F03042B02DC8D4A528866
:102940001AB10F228A4B1A705CE0894A12F82310E0
:1029500041F0020102F823109DE1864B5E889F88BA
:10296000854BA3F10C02114633F80C0CB04209D18F
:1029700033F80A0CB84205D1360A032E0CBF2F7863
:1029800017891AE00D690C330C32002DEBD10F22A0
:10299000774B1A7036E0794B1A68794B1A60754B91
:1029A0009A78784B1A7076E10F22714B1A7029E0F1
:1029B00000273D4601E002276C4D6E4BDB889F42AD
:1029C00028BF1F46402F34BF3E464026284631468A
:1029D000FFF728FD3544BF1B03D13F2E00F2608175
:1029E00010E0402F34BF3E46402628463146FFF7D0
:1029F00019FD3544BF1B01D13F2E03D9624B1D6029
:102A0000624B1F8001238AF8003042E0594B19883D
:102A100042F22103994212D15D4BD81D12F8011BDD
:102A200003F8011F8342F9D15A4B1B68862B02D150
:102A30000F22594B1A7000200146FFF7F3FC574B49
:102A400045F8363025E0504B1E68BEB14F4FB7F801
:102A50000080B8F1400F34BF454640253046294636
:102A6000FFF7E0FCC5EB08039BB23B800BB9402DA0
:102A700001D1354400E00025434B1D603D4B1B88D0
:102A8000B3F5A06F05D13B4B00225A709B788BF8B1
:102A9000003001238AF80030B9E0414E9F0806EB70
:102AA000C708D8F80420A2F10800013DEDB213F0E8
:102AB000080F47D000F07EF93A4B53F825304BB35E
:102AC0005A68384941F8252003F10802C8F8042063
:102AD000354A525D032A12D8DFE802F002060A0ED8
:102AE0000321314A51550AE002212F4A515506E08F
:102AF00005212D4A515502E004212B4A515518F069
:102B0000080F0CBF8822C8221B8842EA034346F8FC
:102B100037307CE0244B5B5D032B0BD8DFE803F000
:102B2000777702060022204B5A5570E001221E4B97
:102B30005A556CE018F0080F0CBF022203221A4B02
:102B40005A5564E056F837301B0C22F8083C002B2D
:102B500055D0002322F8063C42F8043C134B53F8AE
:102B600025302BBB114B43F8250025E0C098FF1FF3
:102B7000C0200740B498FF1F189F0000E497FF1F74
:102B8000F49AFF1FD898FF1FE897FF1FBC98FF1FFC
:102B9000EB9AFF1FEC9AFF1F5198FF1FC8004000DF
:102BA0000080FF1F9498FF1FFC97FF1F4098FF1F96
:102BB0003F4B53F8253058603D4B43F825003D4BC3
:102BC00033F8151032F8082C0A4423F8152000F0C9
:102BD000D1F860B100F10803C8F8043018F0080F0C
:102BE000354B364A08BF134646F837300FE000230E
:102BF00046F83730324B1A7801321A7007E018F075
:102C0000080F2D4B2D4A08BF134646F837300823CE
:102C10002370F4E415F0010F22D02A4902230B702F
:102C20000022294B1A70294B24481860284C5C60FC
:102C300098602848D8601A619A610D20264B187058
:102C4000FF23264803700838037018300270244AA6
:102C500013709F22234B1A7001230B70BDE8F88F6D
:102C600015F0800F05D00D221B4B1A708022403BBF
:102C70001A7015F0020F06D0184B1A78D2B21A70DB
:102C80000222083B1A7015F0100F0ED01022164BBE
:102C90001A70BDE8F88F00200146FFF7C3FBB1E6CC
:102CA00028460021FFF7BEFBACE6BDE8F88F00BF69
:102CB000EC97FF1FE49AFF1FC80040008800400007
:102CC000BE98FF1F942007405098FF1F0080FF1FF1
:102CD0000098FF1F5498FF1FC0200740882007401E
:102CE0008C200740842007408020074008B501F071
:102CF00057FE00231B491A465A50C8184260083331
:102D0000882BF9D1184B1A6842F480221A60154BAF
:102D1000C3F30721154A1170C3F307411432117030
:102D20001B0E04321370FF23343A137008321370F1
:102D3000783A137001238432137000216C321170C1
:102D40007C3A137070220A4B1A704FF40072A3F28F
:102D500041331A60102203F1C04303F5C8231A70EF
:102D600008BD00BF0080FF1F348004409C20074046
:102D700049E400E072B60D4B1A68B2FA82F30B2BED
:102D800002D962B6002070474FF00041D94022EAD4
:102D9000010206490A6062B6054903EBC303DB0082
:102DA000C8180022CA504260704700BF088EFF1F3B
:102DB0000084FF1F08B50F4BC31A0F4AA2FB031371
:102DC0001B090B2B14D80D4A12783AB10C4A127811
:102DD00012F0FF0F02D0FFF77DFB08BD72B6094A63
:102DE0004FF0004121FA03F311681943116062B6F4
:102DF00008BD00BF0084FF1F398EE338BE98FF1F57
:102E0000C898FF1F088EFF1F10B5134B1B6853B9DE
:102E1000124B1B7813F0FF0F18D00320FFF726FB8F
:102E20000D4B1860A8B10C4B186843885A1C03441A
:102E30001C7A03889A4206D3FFF7BCFF0022064B98
:102E40001A60204610BD4280204610BD4FF0FF3072
:102E500010BD4FF0FF3010BDD498FF1FC898FF1F62
:102E600008B50D4B1B6883B90C4B1B7813F0FF0F93
:102E700008D00320FFF7FAFA074B186028B94FF083
:102E8000FF3008BD4FF0FF3008BD034B1B685A8868
:102E90001344187A08BD00BFD498FF1FC898FF1FBD
:102EA000044B9888044B1B681BB11A885B88D31AA3
:102EB00018447047E49AFF1FD498FF1F10B50B4BBE
:102EC0001B7813F0FF0F0FD0094B186820B1FFF7E4
:102ED00071FF0022064B1A6003242046FFF7C6FA52
:102EE00010B1FFF767FFF8E710BD00BFC898FF1FDC
:102EF000D498FF1F2DE9F84F04460122384B1A7071
:102F00008B46002965D00E46DFF8E080DFF8E090C0
:102F10009A46344FD8F8003083BB99F8003013F04C
:102F2000FF0F06D100222E4B1A704FF0FF30BDE884
:102F3000F88F47F209550420FFF7B6FA07280AD898
:102F400001238AF80030FFF715FFC8F80000A8B980
:102F500000238AF80030013D01D03B7833B10122D3
:102F6000204B1A704FF0FF30BDE8F88F00F0C8F921
:102F700099F8003013F0FF0FDDD1D3E700233B7049
:102F8000D8F800104A88C2F14005AE4238BF354635
:102F900002F108030B442A444A80761B3DB12544C4
:102FA00014F8012B03F8012BAC42F9D100E02546BF
:102FB0004B883F2B07D940230B800420FFF7CEFA24
:102FC0000023C8F800300522074B1A700EB12C46BA
:102FD000A0E70022024B1A705846BDE8F88F00BFE8
:102FE000CB98FF1FD098FF1FCA98FF1FCC98FF1FD8
:102FF000C898FF1F00B583B002AB03F8010D184657
:103000000121FFF777FF03B05DF804FB10B5144B07
:103010001B7813F0FF0F21D00122124B1A70124BB4
:10302000196851B10024114B1C704B880B8004208F
:10303000FFF794FA0C4B1C600DE0FFF79BFE014676
:1030400030B10022094B1A700420FFF787FA02E022
:103050000122064B1A700022024B1A7010BD00BFED
:10306000C898FF1FCB98FF1FCC98FF1FCA98FF1F5F
:1030700008B50E4B1B7813F0FF0F16D10C4B1968D7
:1030800041B14B880B800420FFF768FA0022084BFF
:103090001A6008BDFFF76EFE014618B10420FFF765
:1030A0005DFA08BD0122034B1A7008BDCB98FF1FC3
:1030B000CC98FF1FCA98FF1F30B472B699B9026846
:1030C0008AB103790F2B0ED827490988194111F0CD
:1030D000010F08D003F1007303F59063B2EB431FB7
:1030E00001D162B63EE0204B1D882946002341FAFB
:1030F00003F212F0010F2DD1012202FA03F425434D
:10310000194A158062B6DAB2027118490C6844F0A7
:1031100002040C6004390C6844F002040C60822440
:1031200013490C601A310A7004310A7006390A70AA
:1031300007310A7003F1007303F590635B010360CC
:1031400000221A605A609A60DA601A615A619A61C4
:10315000DA6107E00133102BC9D162B600230360A6
:103160001023037130BC7047DA98FF1F4080044081
:103170000080004003790F2B10D8094A137072B6F3
:10318000084B0279012101FA02F2198821EA0202B0
:103190001A8062B61023037100230360704700BFDA
:1031A0001A800040DA98FF1F00B583B0054B1B88DA
:1031B000ADF8043003685B6801A90222984703B0A8
:1031C0005DF804FBDC9E000010B5144603685B68E4
:1031D0009847204610BD00BF0EB400B582B003AAC8
:1031E00052F8041B019203F05FF802B05DF804EBA3
:1031F00003B07047F0B58BB0164622B903681B6860
:10320000C9B298472FE0012A08BF0A2621B9302207
:103210008DF82520212417E021243746B1FBF6F54F
:1032200006FB1515EDB22246092D94BF3035373512
:10323000EDB20DF1280E724402F8245CB1FBF7F1F7
:1032400011B1013CE4B2E9E733B1013CE4B20AABAD
:1032500023442D2203F8242C03685B6801A9214430
:10326000C4F1220298470BB0F0BD00BF08B5002999
:10327000BABF49422D2300230A22FFF7BBFF08BD36
:1032800008B5FDF7EFF8FDF7C7F900F039F8FAE7F0
:1032900008B502F061FA08BD08B502F065FA08BD8C
:1032A00008B5FFF7FDFD08BD08B5FFF7ADFD08BD8A
:1032B00008B5FFF7D5FD08BD08B5FFF7A7FE08BDA7
:1032C00008B5FFF7FBFD08BD08B50846FFF792FEFD
:1032D00008BD00BF08B508461146FFF70BFE08BD44
:1032E000704700BF044B00221A714FF47A71996045
:1032F0001A73024A1A607047DC98FF1FE89E0000AC
:1033000008B50F4B1B78CBB901220D4B1A70FFF794
:10331000C7FD08B1FFF7E4FF00F0D4FB08B101F0EE
:1033200015FC00F081FF08B101F0B2FC01F04EFA8B
:1033300008B101F04FFD0022014B1A7008BD00BF1B
:10334000EC98FF1F844641EA000313F003036DD19C
:10335000403A41D351F8043B40F8043B51F8043B58
:1033600040F8043B51F8043B40F8043B51F8043B5F
:1033700040F8043B51F8043B40F8043B51F8043B4F
:1033800040F8043B51F8043B40F8043B51F8043B3F
:1033900040F8043B51F8043B40F8043B51F8043B2F
:1033A00040F8043B51F8043B40F8043B51F8043B1F
:1033B00040F8043B51F8043B40F8043B51F8043B0F
:1033C00040F8043B51F8043B40F8043B51F8043BFF
:1033D00040F8043B403ABDD2303211D351F8043B9F
:1033E00040F8043B51F8043B40F8043B51F8043BDF
:1033F00040F8043B51F8043B40F8043B103AEDD24E
:103400000C3205D351F8043B40F8043B043AF9D29E
:10341000043208D0D2071CBF11F8013B00F8013B71
:1034200001D30B8803806046704700BF082A13D37E
:103430008B078DD010F003038AD0C3F10403D21A96
:10344000DB071CBF11F8013B00F8013B80D331F8CA
:10345000023B20F8023B7BE7043AD9D3013A11F84A
:10346000013B00F8013BF9D20B7803704B784370B5
:103470008B7883706046704760223A4B1A70E12265
:1034800001331A70384B1B78082B10D1012203F13D
:10349000804303F56C331A60132334490B6001F544
:1034A000FF2101F2FC710A60314A13601FE00A2B10
:1034B0000DD139222F4B1A6013232C490B6001F5D3
:1034C000FF2101F2FC710A60294A13600FE00C2B06
:1034D0000CBF35223D22274B1A60122323490B6073
:1034E00001F5FF2101F2FC710A60214A1360224BB1
:1034F0001B7833B10123214A136002F500221360C7
:1035000005E000231D4A136002F5002213601C4BE6
:103510001B78012B06D880231A4A136002F500227B
:1035200013601AE0042B06D88423164A136002F5B0
:103530000022136011E0082B06D88523114A13607E
:1035400002F50022136008E0102B94BF8623872326
:103550000C4A136002F50022136001220A4B1A7014
:10356000704700BF004007400C8EFF1F0CB00340A7
:103570000CB00B4008B00340EE98FF1F20B0034092
:103580000D8EFF1F24B00340ED98FF1F30B40023C1
:10359000B0FBF2F402FB14041D46092C94BF303436
:1035A0003734E4B2CC54B0FBF2F008B10133EFE7AA
:1035B0000D4400226A70934207DD885CCC5C8C5419
:1035C000C8540132013B9A42F7DB084630BC7047D1
:1035D000254B1A6842F480621A600023234A137054
:1035E000234A1370234A1370234A1370234A13701B
:1035F000234B1B7813B1152B05D008E040F2133292
:10360000204B1A6003E040F213321F4B1A601F4B2D
:103610001B78012B02D0052B05D008E04FF4517226
:103620001B4B1A6003E04FF451721A4B1A60C0F33F
:103630004432194B1A70C0F347125A7000F01F0041
:10364000987204229A700221D9745A7588221A74C9
:103650003C22DA704022114B1A704FF40052A3F250
:1036600029331A60704700BF348004407C99FF1FE3
:10367000F598FF1F8499FF1F7D99FF1FF498FF1F86
:103680003899FF1F40A0044018C004400E8EFF1F51
:1036900044A004401CC0044000A006402DE400E00B
:1036A000164B9B7803F0EC0300F00302134310F079
:1036B000040F18BF43F01003104A937000F00F037B
:1036C000042B04D11346927942F040029A710B4BBD
:1036D0005A7902F0EF0210F0100F18BF42F01002FA
:1036E000064B5A719B7903F0EF0310F0200F18BFBF
:1036F00043F01003014A9371704700BF00A00640D9
:1037000010B5144B1B6813F4806F21D0124B1B783B
:1037100013F0FF0F06D0104CFFF7F2FD237813F0E3
:10372000FF0FF9D14FF400520C4B1A6000230C4AE2
:10373000D37040F203120B490A6004310A600A4A4E
:1037400013700A4A13700A4B1B680BB101221A70DE
:1037500010BD00BF34800440F498FF1F84E100E0F6
:1037600000A0064040A004407C99FF1FF598FF1F71
:10377000F098FF1F10B50446094A137813F0FF0FA5
:10378000FBD120460121FEF7F9FC20460021FEF77F
:10379000C3FC044B53F83420034B1A6010BD00BF28
:1037A000F498FF1FCC9D00008099FF1F10B40C46B9
:1037B00009B140F08000184B1B78984228D0174A76
:1037C000126812F4806F21D003F07F03012B02D026
:1037D000052B04D006E00022114B1A6002E0002203
:1037E000104B1A60002C0CBF4422602200F07F03B3
:1037F000012B02D0052B05D008E042F44072084BA3
:103800001A6003E042F44072064B1A60024B1870D3
:103810005DF8044B704700BF0E8EFF1F34800440DC
:1038200044A004401CC00440114B1B7898421ED099
:10383000104A126812F4806F17D013B1152B04D000
:1038400006E000220C4B1A6002E000220B4B1A60CB
:1038500010B1152805D008E040F21332064B1A606B
:1038600003E040F21332054B1A60014B18707047A9
:103870003899FF1F3480044040A0044018C0044021
:1038800010B50D4B1B6813F4806F12D021280CD893
:103890000A4C0B4B53F8303023600121FEF76EFCCD
:1038A000236800221A70012010BD0020034B18600D
:1038B00010BD002010BD00BF34800440F098FF1FF1
:1038C000CC9D0000114B1B6813F4806F1BD0122895
:1038D00004D140F202320E4B1A600DE0142804D1DC
:1038E00040F202320B4B1A6006E00B4B5A7B02F09F
:1038F000FE025A7300207047074B5A7B42F00102C8
:103900005A73012070470020704700BF3480044084
:103910000CA0044014C0044000A006402DE9F04172
:1039200007461F4B1B6813F4806F37D01D4B1B6875
:103930000BB101221A701C4B1C780134402C28BF9B
:1039400000241A4D1A4EDFF86C8017E0FEF768FB72
:1039500040280FDC337913F0800F0FD02B78013320
:10396000402B28BF002318F80320D2B2F271DBB23B
:103970002B7003E0FF2801DDFFF7C2FC2B78DBB2E0
:103980009C42E3D0FFB20B4B1F5501220A4B1A7029
:10399000E4B2054B1C70BC22054BDA70BDE8F08127
:1039A000348004408099FF1F8499FF1F7D99FF1F79
:1039B00000A00640F898FF1FF498FF1F2DE9F84F6C
:1039C0000746284B1B6813F4806F49D0264B1B68B1
:1039D0000BB101221A7007EB010B5F453DD2DFF8F6
:1039E0009890224EDFF88C80DFF890A099F8004084
:1039F0000134402C28BF00243578EDB2A54220D1F7
:103A0000BC2388F80330FEF70BFB402811DC98F844
:103A1000043013F0800F10D033780133402B28BFCF
:103A200000231AF80320D2B288F80720DBB23370E3
:103A300003E0FF2801DDFFF763FC3378DBB29D4232
:103A4000E1D017F8013B0AF804300122084B1A7044
:103A5000E4B289F800405F45C8D1BC22054BDA705A
:103A6000BDE8F88F348004408099FF1F7D99FF1FC7
:103A7000F498FF1F00A006408499FF1FF898FF1FCD
:103A800010B5064B1B7813F0FF0F06D0034CFFF761
:103A900037FC237813F0FF0FF9D110BDF498FF1F06
:103AA000064B1B78DBB2064A1278D2B293422CBF87
:103AB0003F3202F1FF32D01A704700BF8499FF1FD6
:103AC0007D99FF1F054B1878C0B2054B1B78DBB200
:103AD000984238BF4030C01A704700BF7C99FF1F22
:103AE000F598FF1F10B4184B1A78D2B2174B1B78F9
:103AF000DBB29A4218D001333F2B18D81449C85C66
:103B0000C0B2DCB211490C7012490968C9B19A42BD
:103B100003D300E00023D31A01E04032D31A1A2B5A
:103B20000FDC00230B700CE04FF0FF3009E0084B76
:103B30001878C0B20021054B1970064B196800298E
:103B4000E8D15DF8044B70477C99FF1FF598FF1F83
:103B50003C99FF1FF098FF1F094B1A78D2B2094B0E
:103B60001B78DBB29A4207D00133402B28BF0023D9
:103B7000054AD05CC0B270474FF0FF30704700BFBD
:103B80007C99FF1FF598FF1F3C99FF1F0D4B1B6889
:103B900013F4806F14D00C4BDA7802F0CB02DA7099
:103BA00040225A74DA7842F03402DA70074B1A78FD
:103BB000D2B2074B1A70074B1B680BB100221A7068
:103BC000704700BF3480044000A00640F598FF1FF6
:103BD0007C99FF1FF098FF1F70B43D4B1B7913F0C9
:103BE000300F33D072B63A4B9B7D03F0FF022BB9F6
:103BF000374BDA7940225A7462B627E062B6354B09
:103C00001978C9B2344B1C78E4B2314D334EEB799C
:103C1000D8B24B1C402B28BF0023A3421CBFF0543A
:103C20001946531E13F0FF02F1D1CAB2294B1A7084
:103C30002B4B1B6853B1A1422EBFC4EB0101C4F151
:103C4000400409192729C4BF01221A70204BDA78D1
:103C5000D2B212F0800F27D01B7913F0800F23D03F
:103C6000204B1C78E4B2204B1B78DBB29C4210D076
:103C700017491E4D01E0A3420BD00133402B28BF52
:103C800000230879E85CC0B2C871087DC0B207287B
:103C9000F1D9DBB214490B700D4B1B7913F0800F77
:103CA00002D07C210A4BD97012F0400F0ED0084B85
:103CB0001B7913F0400F09D000220D4B1A700D4BE9
:103CC0001B6803B11A703C22014BDA7070BC70475C
:103CD00000A006407C99FF1FF598FF1F3C99FF1F2D
:103CE000F098FF1F8499FF1F7D99FF1FF898FF1F11
:103CF000F498FF1F8099FF1F254B1A6842F4006259
:103D00001A600023234A1370234A1370234A137046
:103D1000234A1370234A1370234B1B78092B02D0BC
:103D20001A2B05D008E040F21332204B1A6003E052
:103D300040F213321E4B1A601E4B1B780A2B02D026
:103D40001F2B05D008E04FF451721B4B1A6003E0A3
:103D50004FF45172194B1A60C0F34432184B1A7069
:103D6000C0F347125A7000F01F00987204229A7034
:103D70000221D9745A7588221A743C22DA704022C2
:103D8000104B1A704FF40042A3F22B331A607047A5
:103D900034800440F899FF1F8D99FF1F009AFF1F80
:103DA000F999FF1F8C99FF1F0F8EFF1F0CB0044065
:103DB00004D00440108EFF1F10B0044000D0044017
:103DC00000B006402FE400E0164B9B7803F0EC03B4
:103DD00000F00302134310F0040F18BF43F0100368
:103DE000104A937000F00F03042B04D1134692790C
:103DF00042F040029A710B4B5A7902F0EF0210F038
:103E0000100F18BF42F01002064B5A719B7903F055
:103E1000EF0310F0200F18BF43F01003014A937115
:103E2000704700BF00B0064010B5224B1B6813F46A
:103E3000006F3ED0204B1B7813F0FF0F06D01E4CB6
:103E4000FFF75EFA237813F0FF0FF9D14FF4004229
:103E50001A4B1A6000221A4BDA701A4B1B78092B86
:103E600002D01A2B05D008E040F20312164B1A605C
:103E700003E040F20312154B1A60154B1B7803F058
:103E80007F030A2B02D01F2B05D008E040F203125B
:103E9000104B1A6003E040F203120F4B1A6000232C
:103EA0000E4A13700E4A13700E4B1B680BB10122A1
:103EB0001A7010BD348004408C99FF1F84E100E02B
:103EC00000B006400F8EFF1F0CB0044004D0044029
:103ED000108EFF1F10B0044000D00440F899FF1F5F
:103EE0008D99FF1F8899FF1F10B50446094A137862
:103EF00013F0FF0FFBD120460121FEF73FF92046CA
:103F00000021FEF709F9044B53F83420034B1A60E3
:103F100010BD00BF8C99FF1FCC9D0000FC99FF1FB6
:103F200010B40C4609B140F08000184B1B78984241
:103F300028D0174A126812F4006F21D003F07F03D3
:103F40000A2B02D01F2B04D006E00022114B1A606E
:103F500002E00022104B1A60002C0CBF44226022A9
:103F600000F07F030A2B02D01F2B05D008E042F49B
:103F70004072084B1A6003E042F44072064B1A602C
:103F8000024B18705DF8044B704700BF108EFF1F86
:103F90003480044010B0044000D00440124B1B7821
:103FA000984220D0114A126812F4006F19D0092BE0
:103FB00002D01A2B04D006E000220D4B1A6002E05A
:103FC00000220C4B1A60092802D01A2805D008E0FC
:103FD00040F21332064B1A6003E040F21332054BF5
:103FE0001A60014B187070470F8EFF1F3480044019
:103FF0000CB0044004D0044010B50D4B1B6813F402
:10400000006F12D021280CD80A4C0B4B53F83030DB
:1040100023600121FEF7B2F8236800221A70012004
:1040200010BD0020034B186010BD002010BD00BF64
:10403000348004408899FF1FCC9D00000D4B1B6805
:1040400013F4006F13D017280AD140F202320A4B42
:104050001A600A4B5A7B42F001025A7301207047E2
:10406000064B5A7B02F0FE025A7300207047002074
:10407000704700BF3480044008B0044000B00640E0
:104080002DE9F04107461F4B1B6813F4006F37D032
:104090001D4B1B680BB101221A701C4B1C7801349C
:1040A000282C28BF00241A4D1A4EDFF86C8017E028
:1040B000FDF7B6FF40280FDC337913F0800F0FD0E7
:1040C0002B780133282B28BF002318F80320D2B205
:1040D000F271DBB22B7003E0FF2801DDFFF710F96E
:1040E0002B78DBB29C42E3D0FFB20B4B1F55012271
:1040F0000A4B1A70E4B2054B1C70BC22054BDA70F7
:10410000BDE8F08134800440FC99FF1F009AFF1F36
:10411000F999FF1F00B006409099FF1F8C99FF1F6F
:104120002DE9F84F0746284B1B6813F4006F49D060
:10413000264B1B680BB101221A7007EB010B5F4580
:104140003DD2DFF89890224EDFF88C80DFF890A007
:1041500099F800400134282C28BF00243578EDB2AE
:10416000A54220D1BC2388F80330FDF759FF402831
:1041700011DC98F8043013F0800F10D0337801333D
:10418000282B28BF00231AF80320D2B288F8072072
:10419000DBB2337003E0FF2801DDFFF7B1F83378BD
:1041A000DBB29D42E1D017F8013B0AF8043001224E
:1041B000084B1A70E4B289F800405F45C8D1BC22B0
:1041C000054BDA70BDE8F88F34800440FC99FF1F7E
:1041D000F999FF1F8C99FF1F00B00640009AFF1F3E
:1041E0009099FF1F10B5064B1B7813F0FF0F06D0F8
:1041F000034CFFF785F8237813F0FF0FF9D110BDBA
:104200008C99FF1F064B1B78DBB2064A1278D2B29C
:1042100093422CBF273202F1FF32D01A704700BF01
:10422000009AFF1FF999FF1F054B1878C0B2054B84
:104230001B78DBB2984238BF4030C01A704700BFCD
:10424000F899FF1F8D99FF1F10B4184B1A78D2B23E
:10425000174B1B78DBB29A4218D001333F2B18D88A
:104260001449C85CC0B2DCB211490C70124909682B
:10427000C9B19A4203D300E00023D31A01E04032CF
:10428000D31A1A2B0FDC00230B700CE04FF0FF3019
:1042900009E0084B1878C0B20021054B1970064B95
:1042A00019680029E8D15DF8044B7047F899FF1FA1
:1042B0008D99FF1FB899FF1F8899FF1F094B1A7826
:1042C000D2B2094B1B78DBB29A4207D00133402BA4
:1042D00028BF0023054AD05CC0B270474FF0FF30C2
:1042E000704700BFF899FF1F8D99FF1FB899FF1FF6
:1042F0000D4B1B6813F4006F14D00C4BDA7802F0EE
:10430000CB02DA7040225A74DA7842F03402DA7062
:10431000074B1A78D2B2074B1A70074B1B680BB1C8
:1043200000221A70704700BF3480044000B006407D
:104330008D99FF1FF899FF1F8899FF1F70B43D4B9F
:104340001B7913F0300F33D072B63A4B9B7D03F0DC
:10435000FF022BB9374BDA7940225A7462B627E054
:1043600062B6354B1978C9B2344B1C78E4B2314D82
:10437000334EEB79D8B24B1C402B28BF0023A3420D
:104380001CBFF0541946531E13F0FF02F1D1CAB2FC
:10439000294B1A702B4B1B6853B1A1422EBFC4EBA3
:1043A0000101C4F1400409192729C4BF01221A7070
:1043B000204BDA78D2B212F0800F27D01B7913F09D
:1043C000800F23D0204B1C78E4B2204B1B78DBB24B
:1043D0009C4210D017491E4D01E0A3420BD001337F
:1043E000282B28BF00230879E85CC0B2C871087D7B
:1043F000C0B20728F1D9DBB214490B700D4B1B7901
:1044000013F0800F02D07C210A4BD97012F0400FBC
:104410000ED0084B1B7913F0400F09D000220D4B32
:104420001A700D4B1B6803B11A703C22014BDA70F5
:1044300070BC704700B00640F899FF1F8D99FF1FB0
:10444000B899FF1F8899FF1F009AFF1FF999FF1F56
:104450009099FF1F8C99FF1FFC99FF1F174B1A683B
:1044600042F480521A600023154A1370154A1370E3
:10447000154A1370154A1370154A137040F2133120
:10448000144A11604FF4517104321160C0F3443189
:10449000114A1170C0F34711517000F01F00907263
:1044A000937013742C23D37040220C4B1A704FF46A
:1044B0000032A3F22D331A60704700BF34800440ED
:1044C000749AFF1F099AFF1F7C9AFF1F759AFF1F9E
:1044D000089AFF1F08C0044000C0064031E400E015
:1044E000164B9B7803F0EC0300F00302134310F02B
:1044F000040F18BF43F01003104A937000F00F032D
:10450000042B04D11346927942F040029A710B4B6E
:104510005A7902F0EF0210F0100F18BF42F01002AB
:10452000064B5A719B7903F0EF0310F0200F18BF70
:1045300043F01003014A9371704700BF00C006406A
:1045400010B5144B1B6813F4805F21D0124B1B78FD
:1045500013F0FF0F06D0104CFEF7D2FE237813F0B5
:10456000FF0FF9D14FF400320C4B1A6000230C4AB4
:10457000D37040F203120B490A6004310A600A4A00
:1045800013700A4A13700A4B1B680BB101221A7090
:1045900010BD00BF34800440089AFF1F84E100E092
:1045A00000C0064008C00440749AFF1F099AFF1F0C
:1045B000049AFF1F10B50446094A137813F0FF0F41
:1045C000FBD120460121FDF7D9FD20460021FDF752
:1045D000A3FD044B53F83420034B1A6010BD00BFF9
:1045E000089AFF1FCC9D0000789AFF1F10B40C465C
:1045F00009B140F08000104B1B78984219D00F4A47
:10460000126812F4805F12D003F07F03082B02D1EE
:1046100000220B4B1A60002C0CBF4422602200F0D9
:104620007F03082B03D142F44072054B1A60024B02
:1046300018705DF8044B7047118EFF1F34800440E2
:104640000CC00440704700BF10B50D4B1B6813F43D
:10465000805F12D021280CD80A4C0B4B53F8303015
:1046600023600121FDF78AFD236800221A700120D2
:1046700010BD0020034B186010BD002010BD00BF0E
:1046800034800440049AFF1FCC9D00000D4B1B6832
:1046900013F4805F13D00E280AD140F202320A4B85
:1046A0001A600A4B5A7B42F001025A73012070478C
:1046B000064B5A7B02F0FE025A730020704700201E
:1046C000704700BF3480044004C0044000C006406E
:1046D0002DE9F04107461F4B1B6813F4805F37D06C
:1046E0001D4B1B680BB101221A701C4B1C78013446
:1046F000282C28BF00241A4D1A4EDFF86C8017E0D2
:10470000FDF78EFC40280FDC337913F0800F0FD0BB
:104710002B780133282B28BF002318F80320D2B2AE
:10472000F271DBB22B7003E0FF2801DDFEF7E8FD3C
:104730002B78DBB29C42E3D0FFB20B4B1F5501221A
:104740000A4B1A70E4B2054B1C70AC22054BDA70B0
:10475000BDE8F08134800440789AFF1F7C9AFF1FE7
:10476000759AFF1F00C006400C9AFF1F089AFF1F92
:1047700038B505460C4629B115F8010BFFF7A8FF1F
:10478000013CF9D138BD00BF10B5064B1B7813F0C2
:10479000FF0F06D0034CFEF7B3FD237813F0FF0F95
:1047A000F9D110BD089AFF1F064B1B78DBB2064AF1
:1047B0001278D2B293422CBF273202F1FF32D01AC4
:1047C000704700BF7C9AFF1F759AFF1F054B187832
:1047D000C0B2054B1B78DBB2984238BF4030C01ADC
:1047E000704700BF749AFF1F099AFF1F10B4184B3F
:1047F0001A78D2B2174B1B78DBB29A4218D0013329
:104800003F2B18D81449C85CC0B2DCB211490C70F7
:1048100012490968C9B19A4203D300E00023D31AB0
:1048200001E04032D31A1A2B0FDC00230B700CE08E
:104830004FF0FF3009E0084B1878C0B20021054B5B
:104840001970064B19680029E8D15DF8044B7047D0
:10485000749AFF1F099AFF1F349AFF1F049AFF1FC3
:10486000094B1A78D2B2094B1B78DBB29A4207D0B7
:104870000133402B28BF0023054AD05CC0B27047EB
:104880004FF0FF30704700BF749AFF1F099AFF1F57
:10489000349AFF1F054B1A78D2B2054B1A70054B9C
:1048A0001B680BB100221A70704700BF099AFF1FE6
:1048B000749AFF1F049AFF1F2F4B1B7913F0200FD0
:1048C00023D02D4BDB79D9B22C4B1B780133402BF5
:1048D00028BF00232A4A1278D2B29A4204D0294A29
:1048E000D154D9B2254A1170274A116869B1274AB3
:1048F0001278D2B293422EBFC2EB0303C2F1400240
:104900009B18272BC4BF01230B701B4BDB78DBB23A
:1049100013F0800F1CD0184A127912F0800F17D0B4
:104920001B4A1178C9B2194A1278D2B2914203D106
:104930006C21114AD1700BE00132282A28BF0022D5
:104940001449885CC0B20C49C871D2B20F490A70D0
:1049500013F0400F0ED0084B1B7913F0400F09D015
:1049600000220D4B1A700D4B1B6803B11A702C22DC
:10497000014BDA70704700BF00C00640749AFF1FF9
:10498000099AFF1F349AFF1F049AFF1F759AFF1F91
:104990007C9AFF1F0C9AFF1F089AFF1F789AFF1F2F
:1049A00000B585B072B61B4B70221A7041211A4AAD
:1049B00011700F21013A117080221A701A46137873
:1049C00013F0800FFBD0154B186862B6144B984259
:1049D0009CBF00EB8000400001A90A22FEF7D6FD33
:1049E0009DF804307BB908E001A9595C31B1918090
:1049F000023201330A2BF7D100E0002301335B00C0
:104A0000084A137003E0074A53800123ECE705B01E
:104A10005DF804FB0000024007000240080002406D
:104A20007F969800A08EFF1F08B503681B68C9B267
:104A3000984708BD08B503681B68C9B2984708BD08
:104A400008B503681B68C9B2984708BD08B5036874
:104A50001B68C9B2984708BD08B54B0803F1B76099
:104A600000F55840B0FBF1F0FEF7B2FD08BD00BF05
:104A700010B514464B0803F1B76000F55840B0FB81
:104A8000F1F0FEF7A5FD2046FEF70AFE10BD00BFBF
:104A900008B5FEF735FE08BD08B50846FEF76AFE04
:104AA00008BD00BF08B50846FEF7BEFE08BD00BF42
:104AB00008B508461146FEF779FE08BD08B5084658
:104AC000FEF7DEFE003018BF012008BD08B508461D
:104AD000FEF7F8FE003018BF012008BD08B5FEF74C
:104AE000F1FF08BD08B5FFF737F808BD08B5FEF7B8
:104AF000F9FF08BD08B5FEF7C3FF08BD08B5FFF70D
:104B000045F808BD08B5FEF7CBFF08BD08B5084657
:104B1000FEF704FF012008BD08B50846FEF7FEFEBB
:104B2000012008BD10B5144608461146FEF746FFA1
:104B3000204610BD38B50D46084601F05FFB04461F
:104B400028462146FEF73AFF204638BD704700BF91
:104B5000044B00221A714FF47A7199601A73024A59
:104B60001A607047809AFF1F689F000008B50368AD
:104B70001B68C9B2984708BD08B503681B68C9B26D
:104B8000984708BD08B503681B68C9B2984708BDB7
:104B900008B503681B68C9B2984708BD08B54B083B
:104BA00003F1B76000F55840B0FBF1F0FFF7A4F84F
:104BB00008BD00BF10B514464B0803F1B76000F5FF
:104BC0005840B0FBF1F0FFF797F82046FFF7FCF8EC
:104BD00010BD00BF08B5FFF727F908BD08B50846A6
:104BE000FFF782F908BD00BF08B50846FFF7D6F900
:104BF00008BD00BF08B508461146FFF791F908BD8A
:104C000008B50846FFF7F8F9003018BF012008BDC5
:104C100008B50846FFF712FA003018BF012008BD9A
:104C200008B5FFF701FB08BD08B5FFF747FB08BD56
:104C300008B5FFF709FB08BD08B5FFF7D3FA08BDB3
:104C400008B5FFF755FB08BD08B5FFF7DBFA08BD4F
:104C500008B50846FFF714FA012008BD08B5084654
:104C6000FFF70EFA012008BD10B51446084611469C
:104C7000FFF756FA204610BD38B50D46084601F03C
:104C8000BDFA044628462146FFF74AFA204638BDB9
:104C9000704700BF044B00221A714FF47A7199607B
:104CA0001A73024A1A607047909AFF1FC89F00004B
:104CB00008B503681B68C9B2984708BD08B5036802
:104CC0001B68C9B2984708BD08B503681B68C9B21C
:104CD000984708BD08B503681B68C9B2984708BD66
:104CE00008B54B0803F1B76000F55840B0FBF1F090
:104CF000FFF7B4FB08BD00BF10B514464B0803F125
:104D0000B76000F55840B0FBF1F0FFF7A7FB204675
:104D1000FFF7E6FB10BD00BF08B5FFF711FC08BDAB
:104D200008B50846FFF746FC08BD00BF08B50846B1
:104D3000FFF788FC08BD00BF08B508461146FFF71D
:104D400055FC08BD08B50846FFF77EFC003018BFCB
:104D5000012008BD08B50846FFF798FC003018BFD1
:104D6000012008BD08B5FFF731FD08BD08B5FFF704
:104D700077FD08BD08B5FFF739FD08BD08B5FFF799
:104D800003FD08BD08B5FFF785FD08BD08B5FFF7B1
:104D90000BFD08BD08B50846FFF79AFC012008BDC9
:104DA00008B50846FFF794FC012008BD10B514466D
:104DB00008461146FFF7DCFC204610BD38B50D460D
:104DC000084601F01BFA044628462146FFF7D0FCAE
:104DD000204638BD704700BF044B00221A714FF4C3
:104DE0007A7199601A73024A1A607047A09AFF1F7D
:104DF00028A0000031F0004310B408D00F4AA3F5FA
:104E0000801494420AD804205DF8044B70470028AF
:104E10000CBF022003205DF8044B7047B3F5801FE0
:104E200001D20320F7E7064A934201D00020F2E7BF
:104E3000D0F1010038BF0020EDE700BFFFFFDF7FAA
:104E40000000F07F81F0004102E000BF83F00043EA
:104E500030B54FEA41044FEA430594EA050F08BF15
:104E600090EA020F1FBF54EA000C55EA020C7FEAD9
:104E7000645C7FEA655C00F0E2804FEA5454D4EB56
:104E80005555B8BF6D420CDD2C4480EA020281EA20
:104E9000030382EA000083EA010180EA020281EA58
:104EA0000303362D88BF30BD11F0004F4FEA0131AA
:104EB0004FF4801C4CEA113102D0404261EB4101B9
:104EC00013F0004F4FEA03334CEA133302D052423F
:104ED00063EB430394EA050F00F0A780A4F10104FB
:104EE000D5F1200E0DDB02FA0EFC22FA05F2801835
:104EF00041F1000103FA0EF2801843FA05F359411B
:104F00000EE0A5F120050EF1200E012A03FA0EFC99
:104F100028BF4CF0020C43FA05F3C01851EBE371C3
:104F200001F0004507D54FF0000EDCF1000C7EEBE0
:104F300000006EEB0101B1F5801F1BD3B1F5001F1E
:104F40000CD349085FEA30004FEA3C0C04F101043D
:104F50004FEA445212F5800F80F09A80BCF1004F66
:104F600008BF5FEA500C50F1000041EB045141EAE8
:104F7000050130BD5FEA4C0C404141EB010111F4E9
:104F8000801FA4F10104E9D191F0000F04BF014694
:104F90000020B1FA81F308BF2033A3F10B03B3F172
:104FA00020020CDA0C3208DD02F1140CC2F10C0202
:104FB00001FA0CF021FA02F10CE002F11402D8BF60
:104FC000C2F1200C01FA02F120FA0CFCDCBF41EA2C
:104FD0000C019040E41AA2BF01EB0451294330BDFB
:104FE0006FEA04041F3C1CDA0C340EDC04F11404D8
:104FF000C4F1200220FA04F001FA02F340EA0300AF
:1050000021FA04F345EA030130BDC4F10C04C4F1F4
:10501000200220FA02F001FA04F340EA03002946D4
:1050200030BD21FA04F0294630BD94F0000F83F41E
:10503000801306BF81F480110134013D4EE77FEA01
:10504000645C18BF7FEA655C29D094EA050F08BF4D
:1050500090EA020F05D054EA000C04BF194610462E
:1050600030BD91EA030F1EBF0021002030BD5FEA72
:10507000545C05D14000494128BF41F0004130BD9A
:1050800014F580043CBF01F5801130BD01F00045EE
:1050900045F0FE4141F470014FF0000030BD7FEA61
:1050A000645C1ABF194610467FEA655C1CBF0B465C
:1050B000024650EA013406BF52EA033591EA030F73
:1050C00041F4002130BD00BF90F0000F04BF00216B
:1050D000704730B54FF4806404F132044FF000059E
:1050E0004FF0000150E700BF90F0000F04BF002117
:1050F000704730B54FF4806404F1320410F000457D
:1051000048BF40424FF000013EE700BF42004FEA77
:10511000E2014FEA31014FEA02701FBF12F07F43F4
:1051200093F07F4F81F06051704792F0000F14BFF1
:1051300093F07F4F704730B54FF4607401F0004535
:1051400021F0004120E700BF50EA010208BF70478C
:1051500030B54FF000050AE050EA010208BF704781
:1051600030B511F0004502D5404261EB41014FF4EA
:10517000806404F132045FEA915C3FF4DCAE4FF0EE
:1051800003025FEADC0C18BF03325FEADC0C18BFD5
:10519000033202EBDC02C2F1200300FA03FC20FA26
:1051A00002F001FA03FE40EA0E0021FA02F1144473
:1051B000C1E600BF70B54FF0FF0C4CF4E06C1CEA88
:1051C00011541DBF1CEA135594EA0C0F95EA0C0FFD
:1051D00000F0DEF82C4481EA030621EA4C5123EA70
:1051E0004C5350EA013518BF52EA033541F480119F
:1051F00043F4801338D0A0FB02CE4FF00005E1FB52
:1052000002E506F00042E0FB03E54FF00006E1FB9B
:1052100003569CF0000F18BF4EF0010EA4F1FF04DE
:10522000B6F5007F64F5407404D25FEA4E0E6D411E
:1052300046EB060642EAC62141EA55514FEAC5202F
:1052400040EA5E504FEACE2EB4F1FD0C88BFBCF5AB
:10525000E06F1ED8BEF1004F08BF5FEA500E50F15C
:10526000000041EB045170BD06F0004646EA010122
:1052700040EA020081EA0301B4EB5C04C2BFD4EB54
:105280000C0541EA045170BD41F480114FF0000E4D
:10529000013C00F3AB8014F1360FDEBF002001F0BB
:1052A000004170BDC4F10004203C35DA0C341BDC35
:1052B00004F11404C4F1200500FA05F320FA04F007
:1052C00001FA05F240EA020001F0004221F000413B
:1052D00010EBD37021FA04F642EB06015EEA430EAE
:1052E00008BF20EAD37070BDC4F10C04C4F12005DE
:1052F00000FA04F320FA05F001FA04F240EA020091
:1053000001F0004110EBD37041F100015EEA430E61
:1053100008BF20EAD37070BDC4F1200500FA05F281
:105320004EEA020E20FA04F301FA05F243EA020300
:1053300021FA04F001F0004121FA04F220EA02000F
:1053400000EBD3705EEA430E08BF20EAD37070BD55
:1053500094F0000F0FD101F00046400041EB010135
:1053600011F4801F08BF013CF7D041EA060195F017
:10537000000F18BF704703F00046520043EB0303D1
:1053800013F4801F08BF013DF7D043EA06037047BE
:1053900094EA0C0F0CEA135518BF95EA0C0F0CD0C9
:1053A00050EA410618BF52EA4306D1D181EA03010F
:1053B00001F000414FF0000070BD50EA410606BF09
:1053C0001046194652EA430619D094EA0C0F02D14E
:1053D00050EA013613D195EA0C0F05D152EA033693
:1053E0001CBF104619460AD181EA030101F00041B1
:1053F00041F0FE4141F470014FF0000070BD41F0FA
:10540000FE4141F4780170BD70B54FF0FF0C4CF4D3
:10541000E06C1CEA11541DBF1CEA135594EA0C0FF2
:1054200095EA0C0F00F0A7F8A4EB050481EA030E3F
:1054300052EA03354FEA013100F088804FEA033326
:105440004FF0805545EA131343EA12634FEA0222F4
:1054500045EA111545EA10654FEA00260EF00041B5
:105460009D4208BF964244F1FD0404F5407402D207
:105470005B084FEA3202B61A65EB03055B084FEA98
:1054800032024FF480104FF4002CB6EB020E75EB95
:10549000030E22BFB61A754640EA0C005B084FEABD
:1054A0003202B6EB020E75EB030E22BFB61A75463A
:1054B00040EA5C005B084FEA3202B6EB020E75EB85
:1054C000030E22BFB61A754640EA9C005B084FEAFD
:1054D0003202B6EB020E75EB030E22BFB61A75460A
:1054E00040EADC0055EA060E18D04FEA051545EAF9
:1054F00016754FEA06164FEAC30343EA52734FEAA2
:10550000C2025FEA1C1CC0D111F4801F0BD141EA1A
:1055100000014FF000004FF0004CB6E711F4801F7F
:1055200004BF01430020B4F1FD0C88BFBCF5E06F5F
:105530003FF6AFAEB5EB030C04BFB6EB020C5FEA6F
:10554000500C50F1000041EB045170BD0EF0004EC4
:105550004EEA113114EB5C04C2BFD4EB0C0541EAF6
:10556000045170BD41F480114FF0000E013C90E6F3
:1055700045EA060E8DE60CEA135594EA0C0F08BFB7
:1055800095EA0C0F3FF43BAF94EA0C0F0AD150EAB6
:1055900001347FF434AF95EA0C0F7FF425AF104649
:1055A00019462CE795EA0C0F06D152EA03353FF471
:1055B000FDAE1046194622E750EA410618BF52EAEE
:1055C00043067FF4C5AE50EA41047FF40DAF52EAC2
:1055D00043057FF4EBAE12E74FF0FF3C06E000BF5F
:1055E0004FF0010C02E000BF4FF0010C4DF804CD6C
:1055F0004FEA410C7FEA6C5C4FEA430C18BF7FEA2C
:105600006C5C1BD001B050EA410C0CBF52EA430C59
:1056100091EA030F02BF90EA020F0020704710F1D9
:10562000000F91EA030F58BF994208BF90422CBF68
:10563000D8176FEAE37040F0010070474FEA410C61
:105640007FEA6C5C02D150EA013C07D14FEA430C7F
:105650007FEA6C5CD6D152EA033CD3D05DF8040BF0
:10566000704700BF8446104662468C461946634622
:1056700000E000BF01B5FFF7B7FF002848BF10F1F9
:10568000000F01BD4DF808EDFFF7F4FF0CBF01203E
:1056900000205DF808FB00BF4DF808EDFFF7EAFFBA
:1056A00034BF012000205DF808FB00BF4DF808ED75
:1056B000FFF7E0FF94BF012000205DF808FB00BF6A
:1056C0004DF808EDFFF7CEFF94BF012000205DF8F4
:1056D00008FB00BF4DF808EDFFF7C4FF34BF012001
:1056E00000205DF808FB00BF03460846194600F09D
:1056F00001B800BF10B40C461346014622460220F2
:105700005DF8044B00F0F0BD70B50F4E0F4D761BE9
:10571000B61007D0043D0024013455F8043F9847E3
:10572000A642F9D10A4E0B4D761B04F069FDB61066
:1057300008D0043D0024013455F8043F9847A642A0
:10574000F9D170BD70BD00BF0CA200000CA200001A
:105750002CA200000CA20000024B0146186800F0C9
:105760000BB800BFE092FF1F024B0146186800F023
:1057700085BE00BFE092FF1F2DE9F04F01F10B0540
:10578000162D83B0064627D935F0070527D4A94240
:1057900025D8304600F036FBB5F5FC7F26D2C14F48
:1057A0004FEAD50C07EBCC03DC689C4200F0D281B9
:1057B0006368E268A16823F00303234430465D6810
:1057C000CA6045F0010591605D6000F01DFB083482
:1057D000204603B0BDE8F08F1025A942D9D9002496
:1057E0000C232046336003B0BDE8F08F5FEA552CF0
:1057F00000F08A80BCF1040F00F260814FEA951C32
:105800000CF1380C4FEA4C01A64F07EB8101CC6834
:10581000A14205D10CE0002B7ADAE468A14207D05E
:10582000626822F00302531B0F2BF4DD0CF1FF3CE6
:105830000CF1010C9B4B3C6903F1080E744500F020
:105840007E81616821F003014A1B0F2A00F3648105
:10585000002AC3F814E0C3F810E06ADAB1F5007F5B
:1058600080F03A81C90803EBC1004FEAA1085A68E9
:105870008168A1604FF0010909FA08F848EA0202BC
:10588000E0605A608460CC604FEAAC03012098402D
:1058900090425BD8024206D12CF0030C4000024239
:1058A0000CF1040CFAD007EBCC084446E146E3685F
:1058B0009C4207D145E1002A80F25681DB689C4278
:1058C00000F03F81596821F003014A1B0F2AF2DDE5
:1058D0001C46D3F80CC054F8088F591945F001093B
:1058E00042F00105C3F804903046C8F80CC0CCF86B
:1058F000088079613961C1F80CE0C1F808E04D60B9
:105900008A5000F081FA63E77E214FF03F0C7BE77D
:105910002244E3685068A16840F00105CB6030463E
:105920009960556000F070FA0834204603B0BDE875
:10593000F08F214430464B6843F001034B6000F088
:1059400063FA0834204603B0BDE8F08FBC68636892
:1059500023F00309A94504D3C5EB09030F2B00F37A
:105960009180514B514A19681368013305EB010AC4
:1059700004EB090B00F061810AF5805A0AF10F0A65
:105980002AF47F6A2AF00F0A30465146019200F04D
:1059900023FCB0F1FF3F8046019A00F0008183456F
:1059A00000F2FA80DFF810C1DCF80030C345534440
:1059B000CCF8003000F04A8112683C4901321BBF2C
:1059C000CBEB080B5B44C1F80080CCF8003018F03A
:1059D000070300F01381C3F10802C3F5805390441C
:1059E0000833C244CAF30B0ACAEB030A51463046D5
:1059F000CDF804C000F0F0FB431CDDF804C000F05B
:105A00003581C8EB0002524442F00102DCF800305C
:105A1000C7F808805344BC42C8F80420CCF80030D2
:105A2000DFF894A015D0B9F10F0F40F2EA80616859
:105A3000A9F10C0222F0070201F0010EA1180520C5
:105A400042EA0E0E0F2AC4F804E04860886000F2B3
:105A50001181174ABC6811688B4288BF1360154AD0
:105A600011688B4288BF1360626822F0030295427E
:105A7000C5EB020301D80F2B04DC304600F0C4F95B
:105A80000024A5E6621943F0010345F001056560B5
:105A90003046BA60536000F0B7F90834204603B0CE
:105AA000BDE8F08FE492FF1FB89AFF1FF096FF1F2A
:105AB000B49AFF1FB09AFF1FBC9AFF1FBCF1140FCE
:105AC00061D9BCF1540F00F28F804FEA153C0CF104
:105AD0006E0C4FEA4C0197E64B0A042B58D9142B55
